:020000040800F2
:10020000000000000CB480B586B000AF78603960A3
:100210007346FB60FA682C4B9A4201D201F0AEF9AA
:10022000FA682A4B9A4201D901F0A8F93B680421E7
:10023000180000F0A3FF0300254A934201D001F00B
:100240009DF93B680421180000F0C8FF0300204A14
:10025000934201D101F092F9FA681B4B9A4201D204
:1002600001F08CF9FA68194B9A4201D901F086F92C
:100270003B680421180000F081FF0300144A9342F8
:1002800001D001F07BF93B680421180000F0A6FFC3
:1002900003000F4A934201D101F070F93B680D4A07
:1002A0001A602423FB183B613A6939687B6818009F
:1002B00001F072F903007B617B691800BD4606B04E
:1002C00080BC08BC02B0184700600008FF68000846
:0802D0000F31120023E21200BD
:100400003EB45F2109064D252D04294445252D02C2
:1004100029444F2529445F22120659252D042A44D8
:1004200045252D022A444B252A4450231B064D25E1
:100430002D042B444F252D022B4443252B443124DE
:10044000240659252D042C444E252D022C444125EB
:100450002C441EC03EBC70473EB4F82109069725C7
:100460002D042944F2252D022944BA252944DC22F1
:10047000120607252D042A44E3252D022A443E2591
:100480002A4478231B0671252D042B44C3252D02F5
:100490002B4416252B443E242406B0252D042C4441
:1004A000F1252D022C441D252C441EC04421090693
:1004B000B0252D04294495252D022944F0252944F1
:1004C0004822120681252D042A4412252D022A4491
:1004D00054252A44B9231B0666252D042B442C25BC
:1004E0002D022B44FB252B444A242406A5252D044C
:1004F0002C443D252D022C4454252C441EC076212D
:10050000090604252D04294426252D022944E82521
:1005100029443C2212068B252D042A4437252D021E
:100520002A44B7252A446A231B06FD252D042B44A3
:10053000D8252D022B4446252B44462424067C2511
:100540002D042C4461252D022C4463252C441EC00F
:1005500046210906E9252D0429447D252D0229443B
:10056000C3252944D72212066E252D042A4431259D
:100570002D022A4444252A4470231B06BA252D0443
:100580002B446D252D022B44E1252B440224240607
:10059000BA252D042C4444252D022C44ED252C4451
:0605A0001EC03EBC7047C6
:1008000010B500F04BFD014810BDC0460F3112007D
:100900000448054B10B5834203D0044B002B00D0A4
:10091000984710BD080400200804002000000000D3
:1009200006480749091A8B10C90FC91810B5491094
:1009300003D0044B002B00D0984710BD08040020C2
:10094000080400200000000010B5074C2378002B9D
:1009500009D1FFF7D5FF054B002B02D0044800E07A
:1009600000BF0123237010BD080400200000000018
:10097000C4490008054B10B5002B03D004490548B5
:1009800000E000BFFFF7CCFF10BDC0460000000034
:100990000C040020C4490008F0B50500830749D0C5
:1009A000541E002A45D003000326CAB202E00135D6
:1009B000013C3ED301332A703342F8D1032C30D9A5
:1009C000FF220A401502AD182A04AD180F2C34D9A5
:1009D0002700103F3F093E01B4461E001A001036A2
:1009E0006644156055609560D56010329642F8D126
:1009F00001373F01DB190F270C22274022403C0022
:100A0000002A0ED03E1FB608B400A4461A001C1DD2
:100A1000644420C2A242FCD103240136B6009B19D3
:100A20003C40002C05D0C9B21C19197001339C42FE
:100A3000FBD1F0BD03001400C0E72700E2E7C04689
:100A4000F0B505000F2A31D903273E000D430C00F5
:100A500003002E402F4234D11500103D2D09AC4625
:100A60002F013F1865685D60A5689D60E568DD60E1
:100A7000256810341D601D001033BD42F2D165465B
:100A80000F230C2401352D01491913404519144237
:100A90001AD0043B9B0801339B008C59AC5104369F
:100AA0009E42FAD10323AD1989191A40561E002A15
:100AB00006D00023CC5C1A00EC5401339642F9D1E5
:100AC000F0BD0500561EF4E71A00EFE730B5032A23
:100AD0001AD90B0003439B0711D0551E002303E0D6
:100AE0005A1C9D4213D01300C25CCC5CA242F7D0CA
:100AF000101B0DE0043A04300431032A04D90468C1
:100B00000B689C42F6D0E8E7551E002AE6D100208B
:100B100030BDC04602B4714649084900095C49002D
:100B20008E4402BC7047C04603B471464908400079
:100B30004900095A49008E4403BC7047002243080B
:100B40008B4274D303098B425FD3030A8B4244D395
:100B5000030B8B4228D3030C8B420DD3FF220902D7
:100B600012BA030C8B4202D31212090265D0030B96
:100B70008B4219D300E0090AC30B8B4201D3CB038C
:100B8000C01A5241830B8B4201D38B03C01A5241CE
:100B9000430B8B4201D34B03C01A5241030B8B42D0
:100BA00001D30B03C01A5241C30A8B4201D3CB02BB
:100BB000C01A5241830A8B4201D38B02C01A5241A0
:100BC000430A8B4201D34B02C01A5241030A8B42A3
:100BD00001D30B02C01A5241CDD2C3098B4201D3BB
:100BE000CB01C01A524183098B4201D38B01C01A39
:100BF000524143098B4201D34B01C01A52410309B0
:100C00008B4201D30B01C01A5241C3088B4201D35E
:100C1000CB00C01A524183088B4201D38B00C01A0B
:100C2000524143088B4201D34B00C01A5241411A32
:100C300000D20146524110467047FFE701B500203F
:100C400000F006F802BDC0460029F7D076E77047ED
:100C50007047C046F0B5CE469946030C9C46130437
:100C600047461B0C1D000E0061460404240C80B591
:100C70000700100C4B436543414360432C0CC018E4
:100C800024188C46A34203D980235B029846C444AF
:100C9000494679435643230C2D042D0C891963448E
:100CA00024046019C918C0BCB946B046F0BDC0469E
:100CB00070B5041E01D10D4870BD04220C49FFF728
:100CC00005FF0C4D002802D12800FFF799FB0023F7
:100CD0002200094829000371543210334362036132
:100CE00001F070FB0028E6D10448E5E79987010090
:100CF000184A0008F00D0020D80C00200F31120017
:100D000013B50400002901D1094816BD002803D0FD
:100D1000002A01D0002B01D10648F6E700930648CF
:100D200013000A00210001F053FB0028ECD0F3E788
:100D30000F31120099870100D80C0020F7B51F4B26
:100D40000A001F4E1F4D204F0193002801D000299B
:100D500015D1B0681D49FFF777FF10226918019877
:100D6000FFF76EFEB0681949FFF76EFF8C2238005E
:100D700069185200FFF764FE154C2000FEBD01000B
:100D8000380001F055FC431E9841124B44421C4070
:100D9000114BB0680D49E418FFF756FF102269188F
:100DA0000198FFF74DFEB0680849FFF74DFF8C2210
:100DB000380069185200FFF743FEDEE7F00D00200F
:100DC00010E000E000080008D80C0020FF0F000031
:100DD000998701008A56EFFF0F3112002023074840
:100DE00010B583600023037101F0A6FC431E9841F7
:100DF000034B40421840034BC01810BD640C002048
:100E00008A56EFFF0F311200074B0A0010B50100A0
:100E1000180001F055FC431E9841044B4042184015
:100E2000034BC01810BDC046640C00208A56EFFF6B
:100E30000F311200074B0A0010B50100180001F035
:100E40000DFD431E9841044B40421840034BC0180F
:100E500010BDC046640C00208A56EFFF0F3112000F
:100E60000023F0B5AFB004000293039304939842BB
:100E700000D1A8E004225549FFF728FE544E00286F
:100E800002D13000FFF7E8FA6A4648212027002304
:100E90005218139711A8137001F04EFC002818D0B7
:100EA0004C4C4D4F4D49B868FFF7CEFE4C4D40229B
:100EB00030006918FFF7C4FDB8684849FFF7C4FE61
:100EC000484E742230006918FFF7BAFD20002FB099
:100ED000F0BD8022210011A801F0F2FB0028DFD133
:100EE00004AA09A911A801F0B9FC0028D8D13E4BE9
:100EF00005AD059380231B0106933C4B29001193FC
:100F00003B4B11A813933B4B129715933A4B1497F5
:100F100017933A4B18971993394B16971B931A97B7
:100F20001C9702F0A9FD0028BAD111A92A0003A834
:100F300002F0D2FE011EB3D13B003200039802F052
:100F400059FF01212F4A3B00039802F053FF2A006A
:100F5000039811A903F018FC0028A1D111A92A00B7
:100F600002A803F02DFA011E9AD122003B0002983C
:100F7000803203F083FA22003B0001210298A03264
:100F800003F07CFA11AB0893039B029A0499079330
:100F9000009507AB09A803F08BFA1B4B2900C41876
:100FA00063425C41194B64421C400A4B02A8E4189E
:100FB00003F048FA290003A802F0F8FE290011A85E
:100FC00002F044FE6DE7034C80E7C046184A000873
:100FD000240C00209987010010E000E0FF0F0000C2
:100FE00000080008640C002024040020C04A000807
:100FF000A04A0008804A0008604A0008404A0008E9
:10100000204A0008440C002015FCFFFF76A91000C0
:10101000BFF34F8F034B044ADA60BFF34F8FC046D4
:10102000FDE7C04600ED00E00400FA050023094892
:10103000094A10B543618361838003330362026010
:1010400000F054F943425841044B40421840044BCD
:10105000C01810BD040E00200030024076A9100018
:1010600099870100002330B587B005000C0001937B
:1010700000F0A4F900281DD102230293F8230E4AA0
:101080001B06A4186419EB18E40ADB0A0134E41AFD
:1010900001A902A80493059400F026FA431E984182
:1010A000064B44421C40064BE41800F099F920001E
:1010B00007B030BD034CFAE7FFFFFFF78A56EFFF9A
:1010C0000F31120099870100F8B506000F00151EB8
:1010D00002D1104C2000F8BD0F4B81180F4A8342FB
:1010E000F7D89142F5D800F069F9041EF1D13B1907
:1010F00001201A685B68311900F0B2F9002806D1A6
:101100000834A542F3D8064C00F06AF9E2E7014C36
:10111000FAE7C0469987010000E0000800E80008EF
:101120000F311200104B30B5104C8D188B4218D86F
:10113000A54216D800230E4C236093420AD12068A2
:10114000434258410B4B404218400B4BC018002300
:10115000236030BD2568002DF1D1CD5CC55401332D
:10116000EBE70548F5E7C04600E0000800E80008A6
:10117000000E002076A91000998701004B1E10B5C3
:101180001B18002908D0C2438A4205D3044A93425F
:1011900002D8044B834201D9FFF73AFF024810BD41
:1011A000FF8F0020001000200F3112004B1E10B5E1
:1011B0001B18002908D0C2438A4205D3044A93422F
:1011C00002D8044B984201D2FFF722FF024810BD1B
:1011D000FF8F0020001200200F31120010B50029EF
:1011E00010D0094A4B1EC318824201D99A4204D832
:1011F000064A824204D29A4202D2C043884201D2B5
:10120000FFF706FF024810BD00000020FF0F00207E
:101210009987010010B500F061F810BD00487047D3
:101220000F3112000D4B0E4982B05B1A9B080093E0
:1012300000230C480193019A009B9A4201D302B00B
:101240007047019A019B9200121812689B00CB18FC
:101250001A60019B01330193EDE7C04608040020AA
:1012600000040020384E000800210A4B0A4A82B0D0
:101270009B1A9B08009301910198009B984201D30F
:1012800002B07047019B9B00D3181960019B01338A
:101290000193F1E7540E00200804002010B5FFF779
:1012A000E3FFFFF7BFFF10BD00210A4B0A4A82B0DF
:1012B0009B1A9B08009301910198009B984201D3CF
:1012C00002B07047019B9B00D3181960019B01334A
:1012D0000193F1E7080400200004002010B5FFF797
:1012E000C3FFFFF7E1FF10BD7047000010B5041EFB
:1012F00001D1012010BD437FDAB2002B02D1027769
:10130000FFF7F2FF022363772379002B1CD118210A
:101310002368124A5A619A688A439A6062792368FC
:10132000002A19D1013A60211A619A6800208A4383
:1013300061690A4380219A609A688A43A1690A43D5
:101340009A6001236377D5E72000E268A16800F086
:1013500007F80028E2D0CCE72269E4E7B71DC10412
:1013600030B51F2304000120013B22D30D00DD40D6
:101370000542F9D0102A15D0102A05D8002A08D025
:101380000120082A12D030BD0120182AFBD1062BDB
:10139000F9D820684161182183688B431343836027
:1013A0000020F0E70120072BF3D9ECE70F2BEAD858
:1013B000EFE70120102ADFD1E5E700000020054B10
:1013C0005A69824205DA044A9A60044A9A60586966
:1013D000C00F70470020024023016745AB89EFCD65
:1013E0008022044B120659690A435A615869C04366
:1013F000C00F704700200240F8B50500802700F0BC
:10140000AFFB7F024619124C23693B420BD1226984
:10141000104B11001048194020611A4209D00F4B9F
:101420000120596004E000F09BFBB042EBD30320A5
:10143000F8BD00F095FB80264519F60223691800D7
:1014400030403342F4D000F08BFBA842F6D3EEE7F5
:1014500000200240FAC30000FBC30000280E002059
:10146000F7B5174E0193337804000D000220009267
:10147000012B1ED00123FA203370002380007360FB
:10148000FFF7BAFF002812D10E4F012C12D17B6951
:1014900023437B61009B2B60BFF36F8F019B6B60CD
:1014A000FA208000FFF7A8FF7B69A3437B6100233C
:1014B0003370FEBD2800009903F092FAF0E7C046B1
:1014C000280E002000200240044A05485369C90044
:1014D00003401943034B0B43536170470020024004
:1014E00007E0FFFF02000100F7B5214F05003B7840
:1014F00002240191012B1AD00123FA203B70002312
:1015000080007B60FFF778FF041E0ED104236B6020
:101510002B68042B0DD1FA20164A174B5169800015
:101520000B435361FFF768FF040000233B7020006A
:10153000FEBD0123019A5B421360AE68AB68EA68A6
:101540009B18B3420CD968683100FFF7BDFFFA2041
:101550008000FFF751FF002808D00400019B1E60A7
:101560000221044A53698B435361DEE70136E5E704
:10157000280E00200020024004000100BFF34F8F1E
:10158000034B044ADA60BFF34F8FC046FDE7C04605
:1015900000ED00E00400FA0570B586B00491102853
:1015A00013D8BA4EFFF7C0FA33001E001E001E000B
:1015B00040006B00B800F1001F017E011E001E00FC
:1015C0001E001E001E001E00B701942800D117E265
:1015D0000AD8922800D1C5E1932800D1E9E120285A
:1015E00000D124E2FFF7CAFF80235B00984200D1BC
:1015F00010E280235B019842F4D1049AA44B126854
:101600009A4202D1A34B049A1360A3480AE03368BC
:10161000A2498B42E6D1106800F09CFA9C4B049AD8
:1016200013609F4806B070BD33689C498B42D9D186
:10163000536815680193FFF7F9FC974B9842DCD08B
:10164000A02128004900FFF7B1FD954B0400984206
:10165000D3D1019B012BD0D8336890498B42C1D1A3
:10166000A02128004900FFF7A1FDA042C5D1280014
:101670000199FFF71DFB884B9842D3D1BDE7336832
:1016800086498B42AED113685468019393680293E4
:10169000D3680393FFF7CAFC7F4B9842ADD0002C70
:1016A000ABDD21000198FFF781FD7D4B05009842DD
:1016B000A3D104210398FFF779FD0590A8429CD19E
:1016C00021000298FFF772FD059B0500984200D0AB
:1016D00093E73368714A934200D083E72100019871
:1016E000FFF764FD0600A84200D086E704210398B6
:1016F000FFF75CFD0500B04200D07EE721000298B4
:10170000FFF754FDA84200D077E72100039B029A1F
:101710000198FFF7F5FAAEE7336860498B4200D0D5
:1017200060E7536815680193FFF780FC5A4B9842B5
:1017300000D162E704210198FFF738FD584B0400FF
:10174000984200D059E710212800FFF72FFD0290A2
:10175000A04200D051E73368504A934200D041E79D
:1017600004210198FFF722FD029B0400984200D05B
:1017700043E710212800FFF719FDA04200D03CE705
:1017800028000199FFF7DAFA75E7336843498B427D
:1017900000D027E7536815680193FFF747FC3E4BDD
:1017A000984200D129E7A02128004900FFF7FEFC5C
:1017B0003B4B0400984200D01FE7019B012B00D94E
:1017C0001BE7336835498B4200D00BE7A021280086
:1017D0004900FFF7EBFCA04200D00EE7280001997A
:1017E000FFF7FCFA47E733682C498B4200D0F9E653
:1017F00013685468019393680293D3680393FFF7C7
:1018000015FC254B984200D1F7E6002C00DCF4E6ED
:1018100021000198FFF7CAFC214B0500984200D037
:10182000EBE604210398FFF7C1FC0590A84200D025
:10183000E3E621000298FFF7B9FC059B05009842FA
:1018400000D0DAE63368154A934200D0CAE6210098
:101850000198FFF7ABFC0600A84200D0CDE60421BA
:101860000398FFF7A3FC0500B04200D0C5E62100B5
:101870000298FFF79BFCA84200D0BEE62100039B24
:10188000029A0198FFF7C0FAF5E6C046000400206E
:1018900023E212003D02130099870100555555556A
:1018A0000F311200336875498B4200D09AE65368B5
:1018B00015680193FFF7BAFB714B984200D19CE683
:1018C00004210198FFF772FC6E4B0400984200D08F
:1018D00093E610212800FFF769FC0290A04200D097
:1018E0008BE63368654A934200D07BE60421019879
:1018F000FFF75CFC029B0400984200D07DE61021BB
:101900002800FFF753FCA04200D076E6280001999A
:10191000FFF790FAAFE6336858498B4200D061E692
:101920001568FFF783FB564B984200D165E6A0216E
:1019300028004900FFF73AFC524B0400984200D0BF
:101940005BE633684D498B4200D04BE6A02128006E
:101950004900FFF72BFCA04200D04EE62800FFF71D
:101960007FFA88E6484E454B31680291994200D093
:1019700038E6156894685368210028000393FFF740
:1019800015FC404A0190904200D036E63368029A36
:10199000934200D026E621002800FFF707FC019BB8
:1019A000984200D029E622002800039900F086F82A
:1019B00061E6354E314B31680291994200D011E613
:1019C000556894681368210028000393FFF7EEFB25
:1019D0002C4A0190904200D00FE63368029A93425D
:1019E00000D0FFE521002800FFF7E0FB019B9842B3
:1019F00000D002E622002900039800F049F83AE6F8
:101A0000214B1E491B688B4200D0EBE503CA00F056
:101A10006BF830E6FFF7FEFB1C4D1B4C2560FFF713
:101A2000FDFB184B984200D0E7E52560F9E55468C6
:101A30001368082120000193FFF7A0FB114B05005C
:101A4000984200D0D9E508212000FFF7C7FBA84243
:101A500000D1D2E508212000FFF790FB0600A84244
:101A600000D0CAE508212000FFF7B8FBB04200D142
:101A7000C3E52100019800F04DF8FCE5555555559A
:101A8000998701000F31120000040020AAAAAA7A47
:101A900070B58025074C531E64682D011B1865190D
:101AA000A04204D39D4202D9FFF70EFB70BD02484D
:101AB000FCE7C046E04A00089987010070B5802520
:101AC000074C531E64682D015B186519A14204D3AD
:101AD0009D4202D9FFF726FB70BD0248FCE7C046D5
:101AE000E04A00089987010010B58024074A4B1E80
:101AF000526824011B181419904204D39C4202D945
:101B0000FFF7B0FA10BD0248FCE7C046E04A000803
:101B10009987010030B50D4D03000C002800D1B0AD
:101B2000002910D0012B0ED8A02209499B0068463D
:101B300059585200FFF7F6FAA84204D06B46DB88EA
:101B40002380029B636051B030BDC046998701007D
:101B5000E04A0008014B18607047C046500E002054
:101B6000F8B50F4B0F4F104E3A6834689D68141942
:101B7000AA4212D3FA210D4B641B18683460890005
:101B8000FEF7DCFF0A4BA04204D200211A68316044
:101B900001321A603D601868F8BD5B68E418E9E737
:101BA00010E000E04C0E0020480E0020500E0020F7
:101BB000440E00200023F0B592109A4232DC062A2F
:101BC00035D0082A63D0042A00D0A7E0544B002067
:101BD000FF259C46534CCA68664613002B40E35CC5
:101BE000170EE75D1B023B43170C2F40E75D0130EA
:101BF0003F063B43170A2F40E75D3F043B43870006
:101C0000043FF7590E6877404E687B400B61734084
:101C10008E684B6173408B615340CB610A287DD045
:101C20001031D8E79C00055901330D51C5E73C4BF5
:101C30000022FF249C463B484B6965461E00264017
:101C40001F0E865DC75D36023E431F0C27401B0AF0
:101C5000C75D2340C35C3F063E431B0401321E4365
:101C60009300043BEB580F687B405E408E61012679
:101C70000B1D5F691D686F409F61032E01D1072A0C
:101C80004CDC01360433062EF3D11831D4E700259D
:101C9000FF24244AC869013503002340D35C070EA2
:101CA000D75D1B023B43070C2740D75D1C4E3F0608
:101CB0003B43070A2740D75D3F043B43AF00043F47
:101CC000F7590E6877404E687B400B6273408E6810
:101CD0004B627340CE688B627340CB62072D1DD080
:101CE0001E001F0ED75D2640965D3F0637431E0C33
:101CF00026401B0A965D2340D35C36043E431B02FC
:101D000033430E6973404E690B6373408E694B63B6
:101D100073408B634340CB632031BBE7F0BDC046CB
:101D2000004E0008004D00080023F0B5CBB0099329
:101D30000B6813261BBA0A934B6811271BBA0B9327
:101D40008B681BBA0C93CB681BBA0D930B691BBA3B
:101D50000E934B691BBA0F938B691BBA1093CB6917
:101D60001BBA11930B6A1BBA12934B6A1BBA1393DB
:101D70008B6A1BBA1493CB6A1BBA15930B6B1BBAF5
:101D800016934B6B1BBA17938B6B1BBA1893CB6BC9
:101D90001BBA19930AAB9A6B072514001100F44182
:101DA000F941920A61404A401C68596A09195C6805
:101DB00052185968EC410B35E94161405C68E40810
:101DC00061405118DA6B19641100F9418C46110019
:101DD0006546F141920A69404A409D6A59689C688B
:101DE0004919521807252100E9418C4621000B357D
:101DF000E9416546E4086940614052185A64083375
:101E00003AAA9A42C7D1012403697F4901934368E2
:101E100007689C464369C269029383680493836997
:101E20000393C36805930C600968099177490C68AE
:101E30000994099C631C00D0BCE0099C0C600968F3
:101E40000991099900291DD00169714B02688569C2
:101E50005A404B40C168866869408C464169C769F1
:101E60000C0074400494446803615F406340059330
:101E7000C368654053400193C36902607340029395
:101E800003954A400423069306230B240199019EDF
:101E9000D941E64119254E400199039CE9414E4044
:101EA0000299019B614019406140761806990C1F08
:101EB00058490D597319082508AE761934593D0053
:101EC0001E19B21802243E00E6410B34E54175406C
:101ED0003E000934E641754066463E433400049EA8
:101EE000069B344066463E402643AE19059D961932
:101EF0005519069A8C58082108AA5218D2580299E6
:101F0000A418019B039A5940A418029A29405140F1
:101F100064180B2229000623D1412A00DA414A40E5
:101F200029001333D9414A40A4180D213200CA4177
:101F30003100173BD941514032001433DA4151404E
:101F4000320063463A431A403B0033401A43049B35
:101F50008918E3180793069B6418083306936346B1
:101F600082210593019B04970393069B029A4900E3
:101F70008B4242D10368C1681C19436804609E19F2
:101F800083684660DA1963468C468260026963445E
:101F90009446C360079B019A6344036143695D19DA
:101FA000836945619B188361029AC3699B18C36169
:101FB0004BB0F0BD3C00019B1549039D4C4059407E
:101FC0000F00059B029E5D40049B57405E40059BB1
:101FD000046063400193049B016153406246049393
:101FE000039B53400393049B029A029363464B4026
:101FF000624005930496AC4644E7079B0295019323
:10200000B446270040E7C046083002400030024096
:10201000F0F0A5A5004C0008F8B50D000024010063
:102020009610A64204DC29002800FFF7C3FDF8BD86
:102030000B784F781B063F043B43CF78A0003B430F
:102040008F7801343F023B432B500431E9E7000015
:10205000F0B5040085B008001600002C49D0002916
:1020600047D0002A03D106221A40022A41D1626ACF
:10207000082115008D43102D01D0202A3CD10621C6
:1020800019400091022903D0216901390F2933D861
:102090002179E66002910621029D8D430099257108
:1020A000022906D10126029D35401CD0002005B032
:1020B000F0BD002125696161A161E16121620395A3
:1020C000039DA942EEDA8D08AD006519019503253F
:1020D000775C8D43ED00AF40019D01316D692F4369
:1020E000019D6F61ECE72100A0602831FFF794FFAC
:1020F000DCE7C2200001DAE70048D8E71F0C000047
:10210000F0B5DB1003338C4659005B01D218002375
:102110008DB0069101210B939E4B19601B680B93A8
:102120009D4B19680B910B99013100D023E10B995C
:1021300019601B6841680B930B9B002B00D012E1C8
:102140000468136895685C405368594083686B4025
:10215000C568D0684540203A0092FF27FF228F4E85
:10216000200E305C0F40F75D000638432F0C1740FF
:10217000F75D3F0438431F0A1740F75D3F023843BD
:10218000009F3F69474001971700080E305C1F40D1
:10219000F75D00063843270C1740F75D3F043843CE
:1021A0002F0A1740F75D3F023843009F7F69474081
:1021B00002971700180E305C2F40F75D0006384379
:1021C0000F0C1740F75D2D0E3F043843270A1740C8
:1021D000F75D14403F023843009F1B0CBF6913405A
:1021E0004740705D0397375D00063843F75C090A86
:1021F0003F041140009B3843775CDB693F02074393
:102200007B400493009B1500103B0093069B013B11
:102210000693002B00DCB2E0019B614FDB09E43D3B
:102220003B40019A6B435F4E540034406340DC09ED
:102230003C406C43590031404C40E109394069430E
:10224000059464003440019A4C40624001921000B1
:1022500008220599D04159404C40019944404B40D7
:1022600018212000CB415840029B0990DB093B40DC
:1022700002986B43410031404B40D90939406943D2
:10228000580030404140C809384068434C00344051
:102290006040029C444002941C004C406040029C00
:1022A000D4416040029C63401824E3415840039BA2
:1022B0000890D809384068435B0033405840C30950
:1022C0003B406B43440034406340DC093C406C437A
:1022D0005D0035406C40039D6540039505005D4001
:1022E0006C40039DD5416C40039D68401825E84132
:1022F000444004980794C4093C4003356C434500AE
:1023000035406C401B25E009384068436500354086
:102310006840C5092F401B256F4345002E4025000E
:102320007E40049F454077406E403D00D5412200ED
:102330007A406E4018241500E54175401026019A38
:10234000059C78405440F441099AF0415440029A67
:1023500045405140F141089A5140039A5340F3419E
:10236000079A5340F9E654684C4093688168250009
:1023700059402300EFE6446853685C40F5E7634644
:10238000019A1A60029A5A60039A9A60049ADA6073
:102390000DB0F0BD0830024000300240004B000894
:1023A00001010101FEFEFEFE002808D0002A06D031
:1023B000022301790B430371002010607047C22093
:1023C0000001FBE710B50523FFF742FE10BD00003A
:1023D000F0B595B00500039102920021102210A8DB
:1023E0000493FEF7D9FA002D00D115E1039B002BD1
:1023F00000D111E1049B002B00D10DE11A9B002BB1
:1024000000D109E1029B0F2B00DC08E106232A79A9
:102410001A4200D005E1029F3B001B0703D00423B2
:102420001343203F2B710026BE4200DA85E0029B59
:102430009E427CDA039B00219C192200137850787D
:102440001B0600040343D078034390780432000253
:1024500003430CA80B5004311029EFD12B00283373
:102460000793079A6B6A10A9FFF74AFE33001033EF
:102470000593059A029B10A99B1A9C46DF1703231C
:1024800000221F40049B67449B19BF1001930891D1
:10249000089891000858043406900433974200DDF0
:1024A00081E0FB43DB171F40059ABB009A18099295
:1024B0007A1C05920CAA0B9200220B995A50614685
:1024C0009C46C91A64460CA820580A90914200DD27
:1024D00082E0CA430126D2171140C9007642CE409D
:1024E000069A324016000CAA4640165110AC059AC6
:1024F0000433032A00DC88E0079A6B6A21000B98FA
:10250000FFF7FEFD0022AB185B69A15801984B4014
:102510000199A350CB70190A8170190C1B0E03701E
:1025200003000432043341700193102AEBD10020E0
:102530001A9B029A1A6015B0F0BD0021039B9A19EC
:10254000137850781B0600040343D0780343907837
:102550000432000203430CA80B5004311029EFD1C0
:102560002A0010AC6B6A28322100FFF7C9FD002257
:10257000049B01949919019BA8184469D35863409E
:10258000019C13510CAC145904324461180ACB70ED
:102590008870180C1B0E48700B7005940431102ABB
:1025A000E9D1103640E7207B667B000636040643FF
:1025B000E07B01320643A07B000206430CA80E50CC
:1025C000069846400898DE730E50310A9973310C14
:1025D000360E59731E735BE70398099C0419A75CB8
:1025E000D4003E0064421834A640089464460A9819
:1025F00046400CA826500498099C06190698089C89
:10260000E0404740B75401325CE7E1580CAA9950CA
:10261000059A013205926AE7C22000018BE7024861
:1026200089E7024887E7C0461D0C00001E0C000029
:1026300010B5FFF7B9FE10BDF7B50400C36C160066
:10264000D200D8059B180F00800EE3649A4202D98D
:10265000236D01332365226D730FD318236583190E
:1026600000253F2B16D940352D1A0C303900201883
:102670002A00FEF7E5F9230054330093483B190084
:1026800000980193FFF750FB2B003F3379199E42CE
:1026900007D800200C30721B79192018FEF7D0F9EA
:1026A000F7BD0323194204D10098FFF73DFB4035E5
:1026B000EAE740220198FEF7C3F90199F4E7000028
:1026C00010B500280BD0002909D0002A07DB04230D
:1026D00004791C4005D1FFF7AFFF200010BD024870
:1026E000FCE70248FAE7C046A30F0000A10F000074
:1026F000094B4365094B8365094BC365094B036669
:10270000094B4366094B8366094BC366094B036754
:102710000023C3640365704767E6096A85AE67BB3B
:1027200072F36E3C3AF54FA57F520E518C68059BB3
:10273000ABD9831F19CDE05B10B5002807D0062266
:10274000037993430371FFF7D3FF002010BD0148C5
:10275000FCE7C046A30F00000022F0B504000D0006
:102760001000032185B0D30F914243410E00123374
:102770009B00E31896435B68F600F34002AE935566
:102780000132082AEFD1230080204C330193E36CFF
:10279000DA05920EA118531C0873372A3AD8002282
:1027A000372B33DD00231A0002A9C95C4432013300
:1027B000A154082BF7D1210020000C315430FFF731
:1027C000B3FA2300210054331E0074311A68EA70F2
:1027D0001A68120AAA701A68120C6A7004CB120ED8
:1027E0002A7004359942F1D12000402200210C309A
:1027F000FEF7D2F8202200213000FEF7CDF80822A3
:1028000000210198FEF7C8F805B0F0BDE1180A7381
:102810000133C5E70022402B1BD127002600543787
:102820000C3631003800FFF77FFA22003300002118
:102830004432197001339342FBD100231A0002A9DC
:10284000C95C44320133A154082BF7D13100380060
:10285000B5E7E1180A730133DDE7000070B5040045
:1028600088B00E00150000281BD0002919D0002ABE
:1028700017D08368013B1F2B15D8042302796946C2
:1028800013430371FFF768FF0023A268934203DB41
:1028900000202A6008B070BD6A46D25CF254013351
:1028A000F3E70248F6E70248F4E7C046A30F00004A
:1028B000A20F000070B54B1CD4889B001D19968890
:1028C0000835B5420AD815682E190660002008346C
:1028D0002D191C193560B171D48070BD0048FCE71A
:1028E000ED03000010B50468002C0AD0002908D0C0
:1028F000A379CA880133083A9B00D31ACB800023FE
:10290000036010BD70B5012300258479026801348D
:10291000A34207D301238380002908DB0023C3716E
:10292000116070BD9E000133B5509BB2F0E7C371DA
:102930004942F5E7F0B58D7984880600A54210D2AA
:102940006B1C1048A3420BD30723F3568C80CB712A
:1029500000239C462300644505DC00229D420BDADF
:10296000F0BD0020F0E7634637689B00FF580A6817
:10297000D75001239C44EDE70E689C00A25101331F
:10298000ECE7C046B5140000F0B58BB002920268C7
:102990000B0004920A680592029A126803928588D5
:1029A00089882A1C8D4200D90A1C92B209920027FC
:1029B0002A008679741C0894089C94421FD80A0047
:1029C00000279E79741C0894089C94421ED88D425E
:1029D00023D30299FFF7AEFF099A002593009C4686
:1029E00000260027AC451BD13E4331D1029B039901
:1029F0009B889A005258002A3CD10BB0F0BD94003D
:102A0000A4466646049C0132A751D5E79400A4462B
:102A10006646059C0132A751D6E702991800D9E70E
:102A2000049B5B59009300230193059B0098019937
:102A30005B59069300230793069B079CC0186141CE
:102A400080197941039B0E00585100270435C9E7CE
:102A5000039B6344196801311960029988881968D9
:102A60000029C3D104338242C0D819680132013130
:102A70001960F4E7029A01339380BEE7828800234D
:102A8000012A03D103681B6858424341180070476C
:102A90000023190030B58279C3710132934202D309
:102AA0000123838030BD05689C00013361519BB2D6
:102AB000F4E7C07940B20138434258417047036897
:102AC00001201B6898437047F7B507230724CB56AE
:102AD00004579C4236D183888A88934203D90220C6
:102AE000002C37D1FEBD934227D3096807680091B7
:102AF000009891004118019101219D007D198800E5
:102B000040422E58B446019E3058844504D18B4231
:102B100002D301318B42F2D24D1E0020AB42E1D0F4
:102B20005B1A9B00521AD959009B9200D3589942C4
:102B300003D984420DD10230D4E70120002CD1D139
:102B40000238CFE70320012CCCD1002BCAD10638A4
:102B5000C8E702204042C5E710B50400FFF78EFF2A
:102B60000123002810D1A2880A4953015218216874
:102B70009200505819008022203912060400144097
:102B8000A24201D08B4201D1180010BD5208013B76
:102B9000F4E7C046FFFFFF3F1F2201230A40934096
:102BA00049090268890088581840C01A43425841B0
:102BB00080B27047F0B50C0085B0002A62D00028C2
:102BC00001D100295ED193790193E31C9B08029304
:102BD0000299019B8B4257D3002C4ED00321E3175F
:102BE0000B4000211B1916689B10051900910099D4
:102BF000043D994218DBD9430025C9171940019FAC
:102C00008F4225DC03210C4026D1029B93809388C0
:102C10001E49591889008959002901D1012B2AD14F
:102C20000020D07105B0F0BD00998900039129788A
:102C300009068C466746697809043943EF783943B9
:102C4000AF783F023943039FB95100990131CDE775
:102C50008F00F5510131D2E79B000178F31819601C
:102C6000451C291A8C42D0DD19682F780902394396
:102C700019600135F5E7013BC8E71000FFF708FFD1
:102C80002000CFE70248CDE70248CBE7FFFFFF3F38
:102C9000B8140000B5140000F7B50400FFF7EEFE0D
:102CA000002814D1A38821689F003D000193019A58
:102CB000002A0ED10A6852000A60CA59012A06D1B8
:102CC00001339BB2A279A380013393420FD8002035
:102CD000FEBD4E19321F1268043DD20F100032683B
:102CE00052001043019A3060013A0192DFE7014837
:102CF000EEE7C046B5140000F8B50400FFF7BEFECD
:102D000000280ED1A5882668691E8300F3181A686A
:102D10005208884206D31A60012D02D9002A00D138
:102D2000A180F8BD5F680130FF073A431A60ECE705
:102D3000F0B5838882795B1885B005000C0093425A
:102D400028DCFFF79BFE002826D1002C17D0AB888B
:102D5000124A29689A1892000192A20002930392E3
:102D6000013B002B0DD11F000A68039E8A519A0077
:102D700001338F50A342FAD3029BE418AC8005B014
:102D8000F0BD019A8F188E58039ABE50019A043AEA
:102D90000192E5E70248F2E70020F0E7FFFFFF3F7E
:102DA000B5140000F7B5002901D10020FEBD202791
:102DB0008488154A0368A618B2009D587F1AFD4002
:102DC0000092A20001959A18043A93420FD11A6812
:102DD0008A401A60019A002AE7D08279013494422D
:102DE00010D8009A9B18019A5A608480DDE7151F5D
:102DF0002D68FD40AC4615688D402E006546354374
:102E00001560E1E70148D1E7FFFFFF3FB51400007F
:102E10004B1EF7B51E2B16D82027002683887C1A58
:102E20005A1E009202680194009CA6420CD30C4CDE
:102E30001C19A40012191468CC40146003D1012B92
:102E400001D0013B8380F7BDB4001419019F656870
:102E50000136BD402F002568CD402F432760E3E7B2
:102E6000FFFFFF3FF0B5050087B00C1E2BD0838815
:102E7000076803939B000493DB190593002200234A
:102E80003E0000920193059BB3420DD100980028AB
:102E900008D0039BAA790133934217D8AB80049BD7
:102EA000F850002007B0F0BD002322003068190060
:102EB000FDF7D0FE009A019B80185941002301C6FE
:102EC00000910193DFE7FFF7E3FDEAE70048E9E758
:102ED000B5140000F0B594468B8882888DB00393BA
:102EE0009A4200D903926446A479039D0134AC420E
:102EF00000D277E0002685799400954231D21F00F8
:102F000000258C799A009C4231D20024002563462A
:102F1000009401953C001A68002301340B940B9C2B
:102F2000A3422AD303998B4246D30099002905D0A6
:102F300002202D494042591889008850013B9BB21C
:102F4000990052180021880040421058002802D1F0
:102F50000131002B43D162460020013393800DB034
:102F6000F0BD076801323E5192B20434C5E70E68E5
:102F70000133B5509BB20432C5E79C000A94046843
:102F80009D00645901330494002405940C689BB29D
:102F90006459069400240794069E079F049C059D8F
:102FA000A41BBD41009E019FA4197D410A9E00956E
:102FB0009451EC170194B2E7046899006458009E9C
:102FC000019F089400240994089C099DA4197D413F
:102FD00001335450E917009501919BB2A2E7013BE0
:102FE0009BB2B0E70148BAE7FFFFFF3FB51400000E
:102FF000F7B51E0000230193170083798A790D002D
:103000000400511C934200D9591C320001A8FFF75B
:1030100051FC002800D06FE029002000FFF754FD8C
:10302000033006282DD8FDF775FD4A43243B432481
:10303000040001992800FFF77DFC0022019B20007D
:10304000DA711900FFF740FD002851D0022807D09F
:10305000431C16D121002800019AFFF73BFF2CE00A
:1030600029002000019AFFF735FF0022019BDA7149
:1030700007E0019A29002000FFF786FC0023019A4F
:10308000D37100213800FFF73DFC39000198FFF7AC
:1030900051FC3100040001A8FFF724FC2000FEBD14
:1030A000019A29002000FFF76FFC0723E356E6E7AB
:1030B000019A29002000FFF767FC0123DFE701994F
:1030C0002000FFF737FC0022019B2900DA7118006D
:1030D000FFF7FAFC00280BD0022805D0431CD0D102
:1030E000019A21002800BEE7019A29002000B4E7D8
:1030F0000198FFF7CDFCC4E7004CCFE7ED030000DB
:10310000F7B51E00002301930D008379897904002F
:1031100017008B4200D91900320001A8FFF7CAFB43
:10312000002845D10123019A290093802000FFF750
:10313000CBFC033006281BD8FDF7ECFC34302917F4
:10314000130D0400019A29002000FFF71DFC002345
:10315000019AD3710CE029002000019AFFF7BAFE12
:10316000F5E7019A21002800F8E70198FFF790FCA5
:1031700000213800FFF7C6FB39000198FFF7DAFBA2
:103180003100040001A8FFF7ADFB2000FEBD2100C7
:103190002800019AFFF79EFE0123D9E7019A290032
:1031A0002000F7E7019A29002000FFF7EDFBF3E785
:1031B000004CEAE7ED0300000023F0B587B005936B
:1031C0000B1D02930C0081790600023118001500D6
:1031D000FFF770FB011E2ED126606068FFF792FB9F
:1031E000B388616801338B800123B288096892003B
:1031F000535032681F271268022101929C46032215
:10320000019858431040884200D35B186046520032
:10321000013F49004240002FF2D15B42A360B179E7
:103220002A00013105A8FFF745FB002806D0290038
:103230000298FFF757FB304B01932BE005993000C4
:10324000FFF778FB0598FFF787FC1F2340421840E3
:10325000010003900598FFF7A5FD62682B00059912
:103260001000FFF74DFF019000283ED1B388BB420C
:1032700013D8290005A8FFF735FB31006068FFF778
:1032800023FC002805DD62682B0031001000FFF7E9
:1032900037FFE560019807B0F0BD184A60689B18D9
:1032A00002689B009B5801210293FFF741FD029B9E
:1032B000002B01D10137D9E705993000FFF73AFB20
:1032C00002990598FFF7CEFD03990598FFF76AFD6F
:1032D00062682B0010000599FFF712FF6268B3883F
:1032E00012689B009B580293E1E729000298FFF7C0
:1032F000F9FA290005A89CE7ED030000FFFFFF3F56
:10330000030010B50430D968FFF7ECFA10BD0022B5
:1033100010B50260826042680300002A03D00430C6
:10332000D968FFF7DFFA10BDF0B51C000023A5B087
:10333000239323680E929A880E0008921A68070059
:103340001A920A6823A80A92A26820929979E268E0
:103350000131FFF7AFFA051E00D0EBE00100239822
:10336000FFF7D0FA239B05931B680493B388089A50
:1033700093423BD30022BB8808998B423BD38B00FE
:103380000993099A049B944663440F931300002603
:10339000049A043BD3181D93099BB34230D1089B78
:1033A0000133059A9380059B9B88012B07D9624ABC
:1033B00004999A1892005258002A00D1B2E021686C
:1033C0000598FFF781FB002800DAADE00E9A21682E
:1033D0002398FFF77FFD002305000E9AD371E16863
:1033E00023A8FFF77FFA280025B0F0BD0A999A00BC
:1033F0008D500133BBE7386899000A500133BBE7B1
:103400003B689B591B930A9B1B9A1B6806930023DE
:1034100006981900FDF71EFC049B1B68029300230D
:103420000393029A039B12184B4106920793069B43
:10343000069A109300231193209B53431C931A9BCD
:103440001C9A1B680B9300230B981900FDF702FCD4
:10345000109A119B80185941039B0B93079B0C9169
:103460000093002301930D930B9B1D1D099BAB4201
:103470001ED1009801990F9B04361B6816930023F8
:103480001793169A179B12184B4106920793069BA7
:10349000189300231993189819990C9A0D9B80186A
:1034A00059411D9B0F9A1860079BCB18136073E757
:1034B000049B009801995B591293019B1393129AF4
:1034C000139B12184B41069207930A9B1B9A5B5958
:1034D0001E93019B1E981900FDF7BCFB069A079BE3
:1034E00012184B410C980D9906920793069B149362
:1034F000019B1593149A159B12184B411E921F9312
:103500001A9B1C9A5B592193019B21981900FDF786
:10351000A1FB1E9A1F9B801859410B9A049B0B9587
:1035200098509BE7013B3CE70E992398FFF702FA7E
:10353000050054E7014D56E7FFFFFF3FED03000094
:10354000002373B5019305000E0014008179D26841
:1035500001A8FFF7AFF9002810D101210198FFF76A
:10356000D1F90199280023003200FFF7DDFEE16860
:10357000050001A8FFF7B6F9280076BD004DFBE76E
:10358000ED03000070B51D00049B1400FFF730FD33
:10359000002804D0A379A28801339A4211D12900CE
:1035A0002000FFF791FA002805DB049B2200290088
:1035B0002000FFF7A5FDA388A07998428041014B28
:1035C000184070BDB514000070B51D00049B1400B8
:1035D000FFF796FD00280AD12000FFF76AFA0028BD
:1035E00005D0049B220029002000FFF701FD70BDDB
:1035F00070B504000D001600FFF74EFB29002000F7
:10360000FFF762FA03000020834205DB330022004B
:1036100029002000FFF774FDA288A3799A4200D9FF
:10362000004870BDB5140000F0B51D00002387B040
:103630000700100001911600029303930493059371
:10364000FFF73DFA002800D0C3E0B1792A0002A8B4
:10365000FFF730F9041E00D084E0B1792A0003A8F6
:10366000FFF728F9041E79D1B1792A00013104A8A5
:10367000FFF720F9041E6DD1B1792A00013105A8A8
:10368000FFF718F9041E61D102993800FFF752F9CB
:10369000041E57D103993000FFF74CF9041E51D195
:1036A00001210498FFF72EF921000598FFF72AF968
:1036B0000298FFF7E3F900281DD00598FFF7F9F904
:1036C000002800D071E031000598FFF7FDF90028CF
:1036D00000DB74E001990598FFF72CF9040031E054
:1036E0000298FFF709FB0498FFF7E9F9002821D0B9
:1036F0000498FFF701FB0298FFF7E1F90028EFD1EA
:103700000398FFF7DCF900282FD103990298FFF7FF
:10371000DBF92B0000283DDB029A03991000FFF72C
:10372000EFFC041E0ED12B00049A05991000FFF740
:10373000E7FCBDE7049A2B0031001000FFF758FCAE
:10374000041ED5D0290005A8FFF7CCF8290004A84D
:10375000FFF7C8F8290003A8FFF7C4F8290002A85A
:10376000FFF7C0F8200007B0F0BD0398FFF7C4FAD8
:103770000598FFF7A4F9002803D00598FFF7BCFAD5
:10378000BEE7059A2B0031001000FFF731FC041E44
:10379000F3D0D7E7039A02991000FFF7B1FC041E9B
:1037A000D0D12B00059A0499C0E7059A2B0031006F
:1037B0001000FFF71DFC041E00D17EE7C2E7059A4A
:1037C0002B0031001000FFF79BFC041E00D17AE7AC
:1037D000B8E7014CC6E7C046B614000070B5037BDD
:1037E00004000D0000209B0717D422680B00100076
:1037F0004968FFF799FD00280FD162682B006968BE
:103800001000FFF791FDA2682B0010006968FFF718
:103810008BFD0423227B1343237370BD062370B5F5
:10382000057B04000E001D400020042D13D10A006A
:1038300021680800FFF784FE00280CD1616832007F
:103840000800FFF77DFEA16832000800FFF778FE50
:10385000237BAB43237370BDF0B51C00002387B0FE
:1038600004930593236803920E00997907000231AF
:10387000E26805A8FFF71EF8051E1AD12368E26862
:10388000997904A80231FFF715F8051E0DD103211F
:1038900005984942FFF736F802233A7B1A420BD0CB
:1038A0003373E16804A8FFF71DF8E16805A8FFF786
:1038B00019F8280007B0F0BD0423B9683373049ADF
:1038C00023000800FFF730FD051EEAD12300B2688F
:1038D0007968B868FFF728FDE2682168B068FFF7EB
:1038E00087FE051EDDD1059AE36821681000FFF709
:1038F0007FFB039B05981B6B1968FFF7E5F8002811
:1039000000D083E0E368059A00930499236838683F
:10391000FFF75AFE051EC4D1E3683268009304998C
:1039200023683868FFF72EFE051EBAD12300049ADB
:1039300005993068FFF7F8FC051EB2D10599049887
:10394000FEF7F8FFE26821680598FFF751FE051EB3
:10395000A7D1E368049A0093110023680598FFF744
:1039600011FE7968230032680800FFF7DDFC051EB0
:1039700000D096E7E26821683068FFF739FE3168C9
:103980002300059A0800FFF7CFFCE268216805983C
:10399000FFF72EFEE26821683068FFF729FE23005A
:1039A000726831683868FFF7BFFC051E00D078E701
:1039B0000499230032680800FFF7B6FCE368326818
:1039C0000093716823681000FFF7FEFDE36832681A
:1039D0000093716823681000FFF7F6FDE3687268D2
:1039E0000093316823681000FFF7EEFD7268230032
:1039F00011000498FFF798FCE368706800930200D8
:103A000023680599FFF7E0FD05004AE7049A2300C3
:103A100011001000FFF788FC051E00D041E7039B52
:103A2000059A186B616823000068FFF77DFC049A13
:103A3000230011000598FFF777FC39682300059AE9
:103A40000800FFF771FCE368049A00930599236866
:103A50001000FFF797FDE26821680598FFF7C8FDA1
:103A6000E368049A0093059923681000FFF78AFD24
:103A7000051E00D015E774E7F7B504000E00002816
:103A800000D1D5E0002900D1D2E00369002B00D19C
:103A9000D0E041694B1E432B00D9CBE00368002BDB
:103AA00000D1C7E04368442B00D9C3E08369002BF1
:103AB00000D1BFE0C369013B432B00D9BAE03068B5
:103AC000002800D1B6E0033103230D009D43DB182D
:103AD0006B43B28860339A4202D2574D2800FEBD34
:103AE000F388C01818332063F3800028F5D08908C4
:103AF00008303200FEF7DEFE051E00D092E063695A
:103B00003200D91C8908206BFEF7D4FE051E00D0B8
:103B100083E0236B61681A682068FFF74BF8236B1A
:103B200061699A6807002069FFF744F8E36901902A
:103B3000206BD91C89080C303200FEF7BBFE051E35
:103B400067D1236BE169DA68A069FFF733F8019B5D
:103B5000FF183F18A368206B456005614561002B85
:103B600012D0E1684B1E422B0ED803318908043075
:103B70003200FEF79FFE051E46D1236BE1685A68AE
:103B8000A068FFF717F83F18236A002B2BD0616A53
:103B90004B1E422B27D8A36A002B24D0E36A013B9B
:103BA000422B20D8206B0331890810303200FEF7F9
:103BB00081FE051E23D1236B616A1A69206AFEF714
:103BC000F9FFE36A3F18206BD91C890814303200D2
:103BD000FEF770FE051E206B0DD14269E16AA06AF6
:103BE000FEF7E8FF3F1878424741144D7F42144BDF
:103BF0003D40ED1872E710303100FEF773FE236B85
:103C00003100181DFEF76EFE206B31000C30FEF700
:103C100069FE3100206BFEF765FE206B3100083035
:103C2000FEF760FEF388183BF3800023236355E71B
:103C3000044D53E7044D51E7ED03000041EBFFFF56
:103C4000BF140000541400005314000070B50500A8
:103C50000C00002837D0002935D0006B002834D064
:103C60000368002B31D08368002B2ED0FEF73AFE7C
:103C7000286B21000830FEF735FE286BC368002B47
:103C800003D00C302100FEF72DFE286B4368002B7B
:103C900003D004302100FEF725FE286B0369002BBA
:103CA00003D010302100FEF71DFE286B4369002B66
:103CB00003D014302100FEF715FE0020E388183BE6
:103CC000E380286370BD0248FCE70248FAE7C0467B
:103CD0005414000053140000F7B506000D00140042
:103CE000002959D0002A57D0002855D00B6B002B43
:103CF00054D01068002851D09A68002A4ED0E3882A
:103D000091791A00343201920C224A439446019A66
:103D1000A788624497423DD3C01810333060220018
:103D2000E380FEF7C7FD00282FD12B6B22009B6894
:103D300099793368181DFEF7BDFD002821D12B6B42
:103D400030689B68083099792200FEF7B3FD051EA4
:103D5000306812D100210068FEF7D4FD33680021DD
:103D60005868FEF7CFFD336801219868FEF7CAFD59
:103D7000012233681A732800FEBD04302100FEF7CB
:103D8000B1FD21003068FEF7ADFDE388103BE38014
:103D900000233360024DEEE7024DECE7024DEAE707
:103DA000ED030000541400005314000070B505002A
:103DB0000C00002816D0002914D00068002813D069
:103DC0000830FEF78FFD2B682100181DFEF78AFDD5
:103DD00028682100FEF786FD0020E388103BE38081
:103DE000286070BD0148FCE70148FAE75414000060
:103DF0005314000070B504000D0010001900002CD1
:103E00001CD0002A1AD0002B18DB2668002E15D0F3
:103E10006268002A12D0A368002B0FD0012D06D0B3
:103E2000002D03D0022D07D0054804E03200FEF734
:103E3000C1FE0028F8D170BD1A00F8E70148FAE782
:103E4000BF1400005414000070B504000D000028D9
:103E500029D0002927D00368002B24D04268002AEB
:103E600021D08268002A1ED0096800291BD06A6808
:103E7000002A18D0AA68002A15D0027B2A73027B78
:103E8000002092070ED41800FEF754FD002809D137
:103E900069686068FEF74EFD002803D1A968A06834
:103EA000FEF748FD70BD0148FCE7C0465414000011
:103EB0000323F7B51500027B07000E00134004D062
:103EC000FFF7C2FF04002000FEBD0193530737D562
:103ED0002A0089688068FFF733FB041EF3D131683C
:103EE0003868FEF727FD041EEDD171687868FEF78B
:103EF00021FD041EE7D1B168EB682A680800FFF7CE
:103F000093FB041EDFD1B2682B0069681000FFF735
:103F10000BFA041ED7D12B68EA68997901A8FEF73D
:103F2000C9FC041ECFD1B1682B00019A0800FFF72D
:103F3000FBF9041E13D0E96801A8FEF7D3FCC2E721
:103F40000A682B0069680068FFF7EEF9041EBAD111
:103F50002B00726869687868FFF7E6F9C9E732688C
:103F60002B0001991000FFF7DFF9B2682B00100059
:103F70000199FFF7D9F9E96801A8FEF7B3FC726867
:103F80002B001100B068FFF7CFF9041E00D09AE7AC
:103F900029003000FFF742FC012304000020B26832
:103FA00011680B604860938033738CE7F0B58BB079
:103FB00005930023109C07930893099323680391AA
:103FC0009979070016000131E26807A8FEF772FC34
:103FD000051E2ED12368E268997908A80131FEF701
:103FE00069FC051E21D12368E268997909A801318D
:103FF000FEF760FC051E14D1039B02211B7B387B5E
:104000001A000A40084217D0002A02D00223337354
:1040100003E031000398FFF717FFE16809A8FEF7F6
:1040200061FCE16808A8FEF75DFCE16807A8FEF7FF
:1040300059FC28000BB0F0BD002A02D03100380036
:10404000E9E7DB075ED4039B079A9B680493049916
:1040500023000800FFF768F9002851D123003268D7
:1040600007993868FFF760F903982300099A0799C0
:104070008068FFF759F92300726809997868FFF79B
:1040800053F9B9682300079A0800FFF74DF9002893
:1040900036D103982300089A07990068FFF744F97E
:1040A000E368089A0093236831681000FFF78CFAE0
:1040B000002825D1079A23001100B868FFF734F9CA
:1040C000079A0398110023004068FFF72DF9E36871
:1040D000099A0093236871680798FFF775FA0898A2
:1040E000FEF7CCFC012818D10998FEF7C7FC01287F
:1040F00000D08BE72300059A31003800FFF7ACFBB6
:1041000005008AE731683868FEF714FC0028F7D10B
:1041100071687868FEF70EFCB3E7039BB8681B7BF9
:10412000B268DB0768D4039923008968FFF7FCF8BD
:10413000051E00D071E7B268230008991000FFF750
:10414000F3F8051E00D068E708992300079A0800D5
:10415000FFF7EAF8089A230007991000FFF7E4F840
:10416000079A230031681000FFF7DEF87268230019
:1041700008991000FFF7D8F8099923003268080061
:10418000FFF7D2F8E36832680093236808991000BB
:10419000FFF71AFA051E00D03FE708990798FEF7C7
:1041A000C9FBE26821680898FFF722FA051E00D0D3
:1041B00033E7E36832680093236808991000FFF73B
:1041C00003FAE368089A0093236831680798FFF7B9
:1041D000FBF9089A230009991000FFF7A5F8051EBE
:1041E00000D01AE7E368726800932368110008980A
:1041F000FFF7EAF904230AE71100FEF79BFB97E7B4
:10420000F0B50F001E00002389B0109D0290290018
:1042100038000392059306930793FFF7DFFA041E15
:1042200047D1EA680F9905A8FFF756FD041E40D153
:1042300005993000FFF708FE29000598FFF7CEFA30
:10424000041E32D1EA680F9907A8FFF745FD041E46
:104250002BD10226079BEA681E730F9906A8FFF769
:104260003BFD041E1DD1069B069A1E730599009501
:104270000F9B3800FFF79AFE041E0ED1029B039A93
:104280009B889688B34217D95E01013E0798002E9D
:1042900014DA0E99FFF7D8FD0400E96806A8FFF7C5
:1042A00085FDE96807A8FFF781FDE96805A8FFF724
:1042B0007DFD200009B0F0BD7601E6E72B000F9AE6
:1042C0000E99FFF7C9FA041EE7D107990E98FFF778
:1042D000BBFD31000298FEF75FFC3100040003983B
:1042E000FEF75AFC0300012C0FD10798002B16D1C2
:1042F00039000F9B0E9A0095FFF758FE041ECCD193
:1043000007990E98FFF7A0FDBFE7002CBDD101284B
:10431000BBD100950F9B0E9A05990798ECE7012BEE
:10432000B3D100950F9B0E9A0699E5E7002337B5A8
:1043300004000D000193984236D0994234D00B6BA3
:10434000002B33D01869002830D05B69002B2DD0AA
:104350002168FEF7EFFA002825D12B6B61685869B8
:10436000FEF7E8FA00281ED10121A068FEF7CAFA7C
:1043700001220F4B1A601B6801930E4B1A680192C1
:10438000019A013206D1019A1A601B680193019BC0
:10439000002B05D0626823682260A268A360626077
:1043A0000123002023733EBD0348FCE70348FAE7DE
:1043B0000830024000300240541400005314000042
:1043C000F8B505000E001400002930D0002A2ED0C8
:1043D00000282CD00B6B002B2BD01068002828D085
:1043E000DB68002B25D0D788997993883A009C46C2
:1043F000CB1CDB0008329B189C4501D20E48F8BD4F
:10440000C0192860E2802200FEF754FA0028F5D196
:10441000336B2200DB6899792B68181DFEF74AFA86
:104420000028ECD021002868FEF75CFAE6E7034894
:10443000E5E70348E3E7C046ED030000541400003D
:104440005314000070B505000C00002811D000299D
:104450000FD0006800280CD0FEF744FA2B6821002A
:10446000181DFEF73FFA0020E388083BE380286030
:1044700070BD0148FCE7C0465414000070B504004C
:104480001000002C0BD0002A09D02568002D06D082
:104490006268002A03D0002903D0012902D0034812
:1044A00003E02A001900FEF785FB70BD54140000DC
:1044B000F0B51C0000238FB0049005911600149FE6
:1044C0000693079308930993002800D148E1002A36
:1044D00000D145E1002C00D142E1002F00D13FE1A5
:1044E0006368002B00D13DE12268002A00D139E148
:1044F0001B6B002B00D135E13A68002A00D131E175
:104500003068002800D12DE17268002A00D129E12D
:10451000DA68002A00D127E11969002900D123E1D6
:104520005969002900D11FE19D68002D00D11BE1D0
:104530001B68002B00D117E1AB793C256B43FD884C
:10454000B9884135FF355B19957914226A439B1868
:10455000994200D20AE1FEF791FA002804D0FB2527
:10456000AD0028000FB0F0BD636830681B6BD968E0
:10457000FEF7AAFA431CF2D17068FEF77FFA002812
:10458000EDD1636870681B6BD968FEF79DFA431C18
:10459000E5D163683A001B6B06A8DB689979FEF7E2
:1045A00089F9051EDDD163681B6BD868FEF7D4FA64
:1045B000059BDB00834253DD63681B6BD868FEF705
:1045C000CBFA07210730C5170D402D18ED10290033
:1045D000069A0498FEF7EEFA069B0490059363682A
:1045E000ED001B6BD868FEF7B7FA291A0598FEF79D
:1045F0000FFC049B002B00D0B0E063683A001B6BFB
:1046000007A8DB689979FEF755F9051E23D1636881
:1046100007991A6B70683B00D268FFF705F800280D
:1046200000D099E063683A001B6B0AA9D868FEF7CE
:10463000C3FD051E0BD1079A0AAB0B991000FEF7BC
:1046400073FE05000AA8002D11D0FEF760FE3900A8
:1046500007A8FEF747F9390006A8FEF743F980E7F7
:10466000069A05990498FEF7A5FA0490C1E7FEF7AB
:1046700047FE069A0AAB07991000FEF755FE051E85
:10468000E5D1079A0AAB11003068FEF74DFE051E12
:10469000DDD10AA8FEF73BFE63683A001B6B0AA94E
:1046A0009868FEF789FD051ED1D13A00616808A817
:1046B000FFF712FB051E2FD161680898FFF736FE41
:1046C000051E25D13A00616809A8FFF705FB051E04
:1046D0001AD10AAB02936368079A0193099B089960
:1046E000009306982368FFF78BFD051E0CD10999EE
:1046F0000AAA0800FFF7DCFB00282BD1099B1B7BD3
:10470000022B15D1FB25AD00390009A8FFF74EFBA0
:10471000390008A8FFF74AFB0AA896E718686368FB
:104720000200196B3B00C968FEF7EAFC051EEBD1DD
:1047300063681B6BD968099B1868FEF7C5F9099B6C
:104740000028EBDA19683068FEF7BEF90028D9D1E5
:10475000074DD9E7074DD7E7064D78E7054D7AE7CE
:10476000054DFEE6054DFCE6054DFAE6054DF8E67D
:10477000EB030000BF1400005414000053140000A9
:1047800057140000ED0300000023F0B58BB00700C4
:104790000E0015000293039304930593984200D1F1
:1047A000F5E0994200D1F2E09A4200D1EFE00B6BC4
:1047B000002B00D1EDE09A68002A00D1EBE0D96827
:1047C000002900D1E7E05968002900D1E3E01B6827
:1047D000002B00D1DFE0037B022B00D1DDE02B6852
:1047E000002B00D1DBE00C209279EB88504334336E
:1047F00003321B18D200A9889B18994200D2CEE040
:104800002A00310002A8FFF767FA041E0BD1336BB0
:1048100038689968FEF758F9002807DB614C2900D1
:1048200002A8FFF7C3FA20000BB0F0BD336B786825
:104830009968FEF749F90028F0DA02993800FFF785
:1048400003FB041EEBD1336B2A0006A99868FEF720
:10485000B3FC041EE3D1336B2A009B6804A899794A
:10486000FEF728F8041E00D086E0336B2A009B6810
:1048700003A89979FEF71EF8041E00D078E0029B89
:104880000799186806AB0200FEF74EFD041E6BD1B7
:10489000029B0799586806AB0200FEF745FD041E0F
:1048A00062D1029A06AB106892680100FEF73CFDE7
:1048B000041E59D1336B04991868FEF73BF806AB18
:1048C000039A07990498FEF72FFD041E4CD1029B12
:1048D000039998680095069B0200FEF753FE041E9C
:1048E00042D1029806AB826800681100FEF71CFDF9
:1048F000041E39D1336B04995868FEF71BF806ABD8
:10490000039A07990498FEF70FFD041E2CD1029B11
:10491000039998680095069B0200FEF733FE041E7B
:1049200022D1029A06AB506812680100FEF7FCFC27
:10493000041E19D101221C4B1A601B6805931B4BE6
:104940001A6805920599029A1068013118D10599E3
:1049500019601B680593059B002B11D19168FEF728
:10496000B3F8002800D00F4C290003A8FDF7BAFFC8
:10497000290004A8FDF7B6FF06A8FEF7C8FC4EE71D
:104980000100FEF7A1F80028EDD1094CECE7094C35
:1049900049E7094C47E7094C45E7024C43E7084C17
:1049A00041E7C04655140000083002400030024084
:1049B0005214000054140000531400005714000057
:1049C000ED030000F8B5C046F8BC08BC9E46704731
:1049D000F8B5C046F8BC08BC9E4670470000000011
:1049E00080220C4B30B55C69D20222435A61EFF34E
:1049F000108272B64C1CFF34401A0D6845500431C9
:104A0000A142FAD18021490218690842FCD182F3FF
:084A1000108830BD00200240B7
:104A180053465531000000004FE342E2FE1A7F9BE7
:104A28008EE7EB4A7C0F9E162BCE33576B315ECE4A
:104A3800CBB6406837BF51F56B17D1F2E12C42472E
:104A4800F8BCE6E563A440F277037D812DEB33A043
:104A5800F4A13945D898C296FFFFFFFF0000000077
:104A6800FFFFFFFFFFFFFFFFBCE6FAADA7179E841D
:104A7800F3B9CAC2FC632551FFFFFFFF0000000124
:104A8800000000000000000000000000FFFFFFFF22
:104A9800FFFFFFFFFFFFFFFF5AC635D8AA3A93E78B
:104AA800B3EBBD55769886BC651D06B0CC53B0F601
:104AB8003BCE3C3E27D2604BFFFFFFFF00000001CA
:104AC800000000000000000000000000FFFFFFFFE2
:104AD800FFFFFFFFFFFFFFFC0000000000E00008F1
:104AE80000000000000000000000000000000000BE
:104AF800000000000000000052096AD53036A538D1
:104B0800BF40A39E81F3D7FB7CE339829B2FFF87AD
:104B1800348E4344C4DEE9CB547B9432A6C2233D91
:104B2800EE4C950B42FAC34E082EA16628D924B242
:104B3800765BA2496D8BD12572F8F6648668981663
:104B4800D4A45CCC5D65B6926C704850FDEDB9DAC2
:104B58005E154657A78D9D8490D8AB008CBCD30AB0
:104B6800F7E45805B8B34506D02C1E8FCA3F0F028C
:104B7800C1AFBD0301138A6B3A9111414F67DCEA5B
:104B880097F2CFCEF0B4E67396AC7422E7AD3585D4
:104B9800E2F937E81C75DF6E47F11A711D29C589DE
:104BA8006FB7620EAA18BE1BFC563E4BC6D27920C0
:104BB8009ADBC0FE78CD5AF41FDDA8338807C731C9
:104BC800B11210592780EC5F60517FA919B54A0DC1
:104BD8002DE57A9F93C99CEFA0E03B4DAE2AF5B036
:104BE800C8EBBB3C83539961172B047EBA77D62652
:104BF800E169146355210C7D982F8A4291443771DD
:104C0800CFFBC0B5A5DBB5E95BC25639F111F15947
:104C1800A4823F92D55E1CAB98AA07D8015B831289
:104C2800BE853124C37D0C55745DBE72FEB1DE8035
:104C3800A706DC9B74F19BC1C1699BE48647BEEF64
:104C4800C69DC10FCCA10C246F2CE92DAA84744AEF
:104C5800DCA9B05CDA88F97652513E986DC631A865
:104C6800C82703B0C77F59BFF30BE0C64791A7D544
:104C78005163CA0667292914850AB72738211B2ECC
:104C8800FC6D2C4D130D385354730A65BB0A6A76B4
:104C98002EC9C281852C7292A1E8BFA24B661AA8C0
:104CA800708B4BC2A3516CC719E892D1240699D6D0
:104CB80085350EF470A06A1016C1A419086C371E49
:104CC8004C774827B5BCB034B30C1C394AAAD84E27
:104CD8004FCA9C5BF36F2E68EE828F746F63A57862
:104CE8001478C8840802C78CFAFFBE90EB6C50A4F5
:104CF800F7A3F9BEF27871C6637C777BF26B6FC558
:104D08003001672BFED7AB76CA82C97DFA5947F0C6
:104D1800ADD4A2AF9CA472C0B7FD9326363FF7CCA2
:104D280034A5E5F171D8311504C723C31896059A3F
:104D3800071280E2EB27B27509832C1A1B6E5AA062
:104D4800523BD6B329E32F8453D100ED20FCB15B4D
:104D58006ACBBE394A4C58CFD0EFAAFB434D3385B6
:104D680045F9027F503C9FA851A3408F929D38F58A
:104D7800BCB6DA2110FFF3D2CD0C13EC5F974417C1
:104D8800C4A77E3D645D197360814FDC222A908838
:104D980046EEB814DE5E0BDBE0323A0A4906245CC4
:104DA800C2D3AC629195E479E7C8376D8DD54EA929
:104DB8006C56F4EA657AAE08BA78252E1CA6B4C6F5
:104DC800E8DD741F4BBD8B8A703EB5664803F60E4E
:104DD800613557B986C11D9EE1F8981169D98E943D
:104DE8009B1E87E9CE5528DF8CA1890DBFE6426856
:104DF80041992D0FB054BB160000000100000002BD
:104E0800000000040000000800000010000000205E
:104E180000000040000000800000001B0000003679
:084E28007509000800000000FC
:084E3000490900080000000020
:084E380055555555000000001E
:0400000508000205E8
:00000001FF
